{
  "address": "0xA733B9f5Ee432DFf4f8BBb18722359180359004E",
  "abi": [
    {
      "inputs": [
        {
          "internalType": "address",
          "name": "_vault",
          "type": "address"
        },
        {
          "internalType": "address",
          "name": "_reactivityPrecompile",
          "type": "address"
        }
      ],
      "stateMutability": "payable",
      "type": "constructor"
    },
    {
      "inputs": [
        {
          "internalType": "address",
          "name": "owner",
          "type": "address"
        }
      ],
      "name": "OwnableInvalidOwner",
      "type": "error"
    },
    {
      "inputs": [
        {
          "internalType": "address",
          "name": "account",
          "type": "address"
        }
      ],
      "name": "OwnableUnauthorizedAccount",
      "type": "error"
    },
    {
      "inputs": [],
      "name": "ReentrancyGuardReentrantCall",
      "type": "error"
    },
    {
      "inputs": [
        {
          "internalType": "address",
          "name": "caller",
          "type": "address"
        }
      ],
      "name": "UnauthorizedCaller",
      "type": "error"
    },
    {
      "anonymous": false,
      "inputs": [
        {
          "indexed": true,
          "internalType": "address",
          "name": "user",
          "type": "address"
        },
        {
          "indexed": false,
          "internalType": "uint256",
          "name": "coverageAmount",
          "type": "uint256"
        },
        {
          "indexed": false,
          "internalType": "uint256",
          "name": "premium",
          "type": "uint256"
        }
      ],
      "name": "CoveragePurchased",
      "type": "event"
    },
    {
      "anonymous": false,
      "inputs": [
        {
          "indexed": true,
          "internalType": "address",
          "name": "user",
          "type": "address"
        },
        {
          "indexed": false,
          "internalType": "uint256",
          "name": "payout",
          "type": "uint256"
        }
      ],
      "name": "InsurancePaid",
      "type": "event"
    },
    {
      "anonymous": false,
      "inputs": [
        {
          "indexed": true,
          "internalType": "address",
          "name": "previousOwner",
          "type": "address"
        },
        {
          "indexed": true,
          "internalType": "address",
          "name": "newOwner",
          "type": "address"
        }
      ],
      "name": "OwnershipTransferred",
      "type": "event"
    },
    {
      "anonymous": false,
      "inputs": [
        {
          "indexed": true,
          "internalType": "address",
          "name": "user",
          "type": "address"
        }
      ],
      "name": "UninsuredProtection",
      "type": "event"
    },
    {
      "inputs": [],
      "name": "PROTECTION_TRIGGERED_TOPIC",
      "outputs": [
        {
          "internalType": "bytes32",
          "name": "",
          "type": "bytes32"
        }
      ],
      "stateMutability": "view",
      "type": "function"
    },
    {
      "inputs": [
        {
          "internalType": "address",
          "name": "",
          "type": "address"
        }
      ],
      "name": "coverageAmount",
      "outputs": [
        {
          "internalType": "uint256",
          "name": "",
          "type": "uint256"
        }
      ],
      "stateMutability": "view",
      "type": "function"
    },
    {
      "inputs": [],
      "name": "depositPool",
      "outputs": [],
      "stateMutability": "payable",
      "type": "function"
    },
    {
      "inputs": [
        {
          "internalType": "uint256",
          "name": "subscriptionId",
          "type": "uint256"
        },
        {
          "internalType": "address",
          "name": "emitter",
          "type": "address"
        },
        {
          "internalType": "bytes32[]",
          "name": "topics",
          "type": "bytes32[]"
        },
        {
          "internalType": "bytes",
          "name": "data",
          "type": "bytes"
        }
      ],
      "name": "handleEvent",
      "outputs": [],
      "stateMutability": "nonpayable",
      "type": "function"
    },
    {
      "inputs": [],
      "name": "initializeSubscription",
      "outputs": [],
      "stateMutability": "payable",
      "type": "function"
    },
    {
      "inputs": [
        {
          "internalType": "address",
          "name": "",
          "type": "address"
        }
      ],
      "name": "insured",
      "outputs": [
        {
          "internalType": "bool",
          "name": "",
          "type": "bool"
        }
      ],
      "stateMutability": "view",
      "type": "function"
    },
    {
      "inputs": [],
      "name": "owner",
      "outputs": [
        {
          "internalType": "address",
          "name": "",
          "type": "address"
        }
      ],
      "stateMutability": "view",
      "type": "function"
    },
    {
      "inputs": [],
      "name": "poolBalance",
      "outputs": [
        {
          "internalType": "uint256",
          "name": "",
          "type": "uint256"
        }
      ],
      "stateMutability": "view",
      "type": "function"
    },
    {
      "inputs": [
        {
          "internalType": "address",
          "name": "",
          "type": "address"
        }
      ],
      "name": "premiumsPaid",
      "outputs": [
        {
          "internalType": "uint256",
          "name": "",
          "type": "uint256"
        }
      ],
      "stateMutability": "view",
      "type": "function"
    },
    {
      "inputs": [
        {
          "internalType": "uint256",
          "name": "coverage",
          "type": "uint256"
        }
      ],
      "name": "purchaseCoverage",
      "outputs": [],
      "stateMutability": "payable",
      "type": "function"
    },
    {
      "inputs": [],
      "name": "renounceOwnership",
      "outputs": [],
      "stateMutability": "nonpayable",
      "type": "function"
    },
    {
      "inputs": [
        {
          "internalType": "uint256",
          "name": "",
          "type": "uint256"
        }
      ],
      "name": "subscriptionIds",
      "outputs": [
        {
          "internalType": "bool",
          "name": "",
          "type": "bool"
        }
      ],
      "stateMutability": "view",
      "type": "function"
    },
    {
      "inputs": [],
      "name": "subscriptionInitialized",
      "outputs": [
        {
          "internalType": "bool",
          "name": "",
          "type": "bool"
        }
      ],
      "stateMutability": "view",
      "type": "function"
    },
    {
      "inputs": [
        {
          "internalType": "address",
          "name": "newOwner",
          "type": "address"
        }
      ],
      "name": "transferOwnership",
      "outputs": [],
      "stateMutability": "nonpayable",
      "type": "function"
    },
    {
      "inputs": [],
      "name": "vault",
      "outputs": [
        {
          "internalType": "address",
          "name": "",
          "type": "address"
        }
      ],
      "stateMutability": "view",
      "type": "function"
    },
    {
      "inputs": [
        {
          "internalType": "uint256",
          "name": "amount",
          "type": "uint256"
        }
      ],
      "name": "withdrawPool",
      "outputs": [],
      "stateMutability": "nonpayable",
      "type": "function"
    }
  ],
  "transactionHash": "0x18cefecd70d4a54f5fdff35438ea64a8cabbedb1f487e2b1d11287a9e52deb56",
  "args": [
    "0x2CFf4FF05996365fCc1b9437948639Bbd3CCB5fa",
    "0x0000000000000000000000000000000000000100"
  ],
  "numDeployments": 2,
  "solcInputHash": "77861ecf9335333cc17936974f041498",
  "bytecode": "0x60a060405260405162000f8238038062000f82833981016040819052620000269162000208565b6001600160a01b0381166080526001805533806200005e57604051631e4fbdf760e01b81526000600482015260240160405180910390fd5b6200006981620000a8565b50600380546001600160a01b0319166001600160a01b038416179055671bc16d674ec800003410620000a057620000a034620000fa565b50506200025a565b600280546001600160a01b038381166001600160a01b0319831681179093556040519116919082907f8be0079c531659141344cd1fd0a4f28419497f9722a3daafe3b4186f6b6457e090600090a35050565b608051600354604051637c988de160e11b81526001600160a01b0391821660048201527f4e1d93c553ac218cc20894fa5c15f44f8d4fbaedf815bba3197c738be7533dcf602482015260006044820181905260648201819052306084830152600160a483015260c4820181905292919091169063f9311bc290849060e40160206040518083038185885af115801562000197573d6000803e3d6000fd5b50505050506040513d601f19601f82011682018060405250810190620001be919062000240565b60009081526020819052604090208054600160ff1991821681179092556008805490911690911790555050565b80516001600160a01b03811681146200020357600080fd5b919050565b600080604083850312156200021c57600080fd5b6200022783620001eb565b91506200023760208401620001eb565b90509250929050565b6000602082840312156200025357600080fd5b5051919050565b608051610d056200027d6000396000818161052601526108280152610d056000f3fe6080604052600436106100f35760003560e01c80638da5cb5b1161008a578063e6ed9e2711610059578063e6ed9e271461029e578063e80b1025146102d2578063f2fde38b146102e5578063fbfa77cf1461030557600080fd5b80638da5cb5b1461020c5780639559099d1461023e57806396365d44146102585780639752e23b1461026e57600080fd5b8063715018a6116100c6578063715018a61461018f5780637601d69f146101a45780638cafc358146101ac5780638d109fe6146101ec57600080fd5b8063293e571c146100f85780632a343709146101385780632c7d189b146101425780634c034ea91461016f575b600080fd5b34801561010457600080fd5b50610125610113366004610ae6565b60046020526000908152604090205481565b6040519081526020015b60405180910390f35b610140610325565b005b34801561014e57600080fd5b5061012561015d366004610ae6565b60066020526000908152604090205481565b34801561017b57600080fd5b5061014061018a366004610b08565b610346565b34801561019b57600080fd5b5061014061045d565b610140610471565b3480156101b857600080fd5b506101dc6101c7366004610b08565b60006020819052908152604090205460ff1681565b604051901515815260200161012f565b3480156101f857600080fd5b50610140610207366004610b6a565b61051b565b34801561021857600080fd5b506002546001600160a01b03165b6040516001600160a01b03909116815260200161012f565b34801561024a57600080fd5b506008546101dc9060ff1681565b34801561026457600080fd5b5061012560075481565b34801561027a57600080fd5b506101dc610289366004610ae6565b60056020526000908152604090205460ff1681565b3480156102aa57600080fd5b506101257f4e1d93c553ac218cc20894fa5c15f44f8d4fbaedf815bba3197c738be7533dcf81565b6101406102e0366004610b08565b61057c565b3480156102f157600080fd5b50610140610300366004610ae6565b6106d7565b34801561031157600080fd5b50600354610226906001600160a01b031681565b61032d610712565b346007600082825461033f9190610c3b565b9091555050565b61034e610712565b61035661073f565b6007548111156103a45760405162461bcd60e51b81526020600482015260146024820152734578636565647320706f6f6c2062616c616e636560601b60448201526064015b60405180910390fd5b80600760008282546103b69190610c54565b90915550506002546040516000916001600160a01b03169083908381818185875af1925050503d8060008114610408576040519150601f19603f3d011682016040523d82523d6000602084013e61040d565b606091505b50509050806104505760405162461bcd60e51b815260206004820152600f60248201526e151c985b9cd9995c8819985a5b1959608a1b604482015260640161039b565b5061045a60018055565b50565b610465610712565b61046f6000610769565b565b610479610712565b60085460ff16156104c15760405162461bcd60e51b8152602060048201526012602482015271105b1c9958591e481cdd589cd8dc9a58995960721b604482015260640161039b565b671bc16d674ec800003410156105125760405162461bcd60e51b815260206004820152601660248201527526bab9ba10333ab7321039bab139b1b934b83a34b7b760511b604482015260640161039b565b61046f346107bb565b336001600160a01b037f000000000000000000000000000000000000000000000000000000000000000016146105665760405163d86ad9cf60e01b815233600482015260240161039b565b6105748686868686866108c4565b505050505050565b61058461073f565b600081116105d45760405162461bcd60e51b815260206004820152601960248201527f436f766572616765206d757374206265206e6f6e2d7a65726f00000000000000604482015260640161039b565b60006127106105e4606484610c67565b6105ee9190610c7e565b9050803410156106375760405162461bcd60e51b8152602060048201526014602482015273496e73756666696369656e74207072656d69756d60601b604482015260640161039b565b336000908152600560209081526040808320805460ff1916600117905560068252808320859055600490915281208054349290610675908490610c3b565b92505081905550346007600082825461068e9190610c3b565b90915550506040805183815234602082015233917fb56cb2ea01754ecaf0532cca8a69b1683ecc3dac9ab49e3c41421ffec172166f910160405180910390a25061045a60018055565b6106df610712565b6001600160a01b03811661070957604051631e4fbdf760e01b81526000600482015260240161039b565b61045a81610769565b6002546001600160a01b0316331461046f5760405163118cdaa760e01b815233600482015260240161039b565b60026001540361076257604051633ee5aeb560e01b815260040160405180910390fd5b6002600155565b600280546001600160a01b038381166001600160a01b0319831681179093556040519116919082907f8be0079c531659141344cd1fd0a4f28419497f9722a3daafe3b4186f6b6457e090600090a35050565b600354604051637c988de160e11b81526001600160a01b0391821660048201527f4e1d93c553ac218cc20894fa5c15f44f8d4fbaedf815bba3197c738be7533dcf602482015260006044820181905260648201819052306084830152600160a483015260c48201819052917f0000000000000000000000000000000000000000000000000000000000000000169063f9311bc290849060e40160206040518083038185885af1158015610872573d6000803e3d6000fd5b50505050506040513d601f19601f820116820180604052508101906108979190610ca0565b60009081526020819052604090208054600160ff1991821681179092556008805490911690911790555050565b60028310610574576000848460018181106108e1576108e1610cb9565b6001600160a01b03602091820293909301359283166000908152600590915260409020549192505060ff1661094a576040516001600160a01b038216907f2baf3c11e8ded7c179f3570197aeaa564a57267288a2459fd4cb39049489dd7590600090a250610574565b6001600160a01b038116600090815260066020526040902054600754811115610974575050610574565b6000600a6007546109859190610c7e565b905060008183106109965781610998565b825b905080600760008282546109ac9190610c54565b90915550506001600160a01b0384166000818152600560209081526040808320805460ff1916905560069091528082208290555190919083908381818185875af1925050503d8060008114610a1d576040519150601f19603f3d011682016040523d82523d6000602084013e610a22565b606091505b5050905080610a7a578160076000828254610a3d9190610c3b565b909155505050506001600160a01b03929092166000908152600560209081526040808320805460ff19166001179055600690915290205550610574565b846001600160a01b03167fa976db6a1ab2b2119ca95cf2715193b8b35e6834d94eb5a3647ca8d6d2314b4b83604051610ab591815260200190565b60405180910390a25050505050505050505050565b80356001600160a01b0381168114610ae157600080fd5b919050565b600060208284031215610af857600080fd5b610b0182610aca565b9392505050565b600060208284031215610b1a57600080fd5b5035919050565b60008083601f840112610b3357600080fd5b50813567ffffffffffffffff811115610b4b57600080fd5b602083019150836020828501011115610b6357600080fd5b9250929050565b60008060008060008060808789031215610b8357600080fd5b86359550610b9360208801610aca565b9450604087013567ffffffffffffffff80821115610bb057600080fd5b818901915089601f830112610bc457600080fd5b813581811115610bd357600080fd5b8a60208260051b8501011115610be857600080fd5b602083019650809550506060890135915080821115610c0657600080fd5b50610c1389828a01610b21565b979a9699509497509295939492505050565b634e487b7160e01b600052601160045260246000fd5b80820180821115610c4e57610c4e610c25565b92915050565b81810381811115610c4e57610c4e610c25565b8082028115828204841417610c4e57610c4e610c25565b600082610c9b57634e487b7160e01b600052601260045260246000fd5b500490565b600060208284031215610cb257600080fd5b5051919050565b634e487b7160e01b600052603260045260246000fdfea264697066735822122024a0de85b2583c1d67121220d554e08eb8ef15c83f34137b437fe11a9adb822864736f6c63430008180033",
  "devdoc": {
    "errors": {
      "OwnableInvalidOwner(address)": [
        {
          "details": "The owner is not a valid owner account. (eg. `address(0)`)"
        }
      ],
      "OwnableUnauthorizedAccount(address)": [
        {
          "details": "The caller account is not authorized to perform an operation."
        }
      ],
      "ReentrancyGuardReentrantCall()": [
        {
          "details": "Unauthorized reentrant call."
        }
      ]
    },
    "kind": "dev",
    "methods": {
      "constructor": {
        "params": {
          "_reactivityPrecompile": "Somnia Reactivity Precompile address                              (0x0100 on mainnet; mock address in tests).",
          "_vault": "REFLEXVault address whose events we watch."
        }
      },
      "owner()": {
        "details": "Returns the address of the current owner."
      },
      "purchaseCoverage(uint256)": {
        "params": {
          "coverage": "The maximum STT amount this policy will pay out."
        }
      },
      "renounceOwnership()": {
        "details": "Leaves the contract without owner. It will not be possible to call `onlyOwner` functions. Can only be called by the current owner. NOTE: Renouncing ownership will leave the contract without an owner, thereby disabling any functionality that is only available to the owner."
      },
      "transferOwnership(address)": {
        "details": "Transfers ownership of the contract to a new account (`newOwner`). Can only be called by the current owner."
      }
    },
    "version": 1
  },
  "userdoc": {
    "kind": "user",
    "methods": {
      "initializeSubscription()": {
        "notice": "Owner-callable lazy initialization for the Reactivity subscription.         Use this if the constructor could not subscribe (e.g. precompile         not yet live on the current network)."
      },
      "purchaseCoverage(uint256)": {
        "notice": "Purchase insurance coverage for your vault position."
      },
      "withdrawPool(uint256)": {
        "notice": "Safety valve — owner can withdraw excess pool funds."
      }
    },
    "notice": "Autonomous insurance pool for REFLEX positions.         This contract subscribes — via Somnia Reactivity — to the vault's         ProtectionTriggered event. When the vault's reactive handler fires         and emits ProtectionTriggered, the Reactivity Precompile fires THIS         contract's handler in the same block. No keeper. No offchain relay.",
    "version": 1
  },
  "storageLayout": {
    "storage": [
      {
        "astId": 663,
        "contract": "contracts/REFLEXInsurance.sol:REFLEXInsurance",
        "label": "subscriptionIds",
        "offset": 0,
        "slot": "0",
        "type": "t_mapping(t_uint256,t_bool)"
      },
      {
        "astId": 188,
        "contract": "contracts/REFLEXInsurance.sol:REFLEXInsurance",
        "label": "_status",
        "offset": 0,
        "slot": "1",
        "type": "t_uint256"
      },
      {
        "astId": 8,
        "contract": "contracts/REFLEXInsurance.sol:REFLEXInsurance",
        "label": "_owner",
        "offset": 0,
        "slot": "2",
        "type": "t_address"
      },
      {
        "astId": 297,
        "contract": "contracts/REFLEXInsurance.sol:REFLEXInsurance",
        "label": "vault",
        "offset": 0,
        "slot": "3",
        "type": "t_address"
      },
      {
        "astId": 301,
        "contract": "contracts/REFLEXInsurance.sol:REFLEXInsurance",
        "label": "premiumsPaid",
        "offset": 0,
        "slot": "4",
        "type": "t_mapping(t_address,t_uint256)"
      },
      {
        "astId": 305,
        "contract": "contracts/REFLEXInsurance.sol:REFLEXInsurance",
        "label": "insured",
        "offset": 0,
        "slot": "5",
        "type": "t_mapping(t_address,t_bool)"
      },
      {
        "astId": 309,
        "contract": "contracts/REFLEXInsurance.sol:REFLEXInsurance",
        "label": "coverageAmount",
        "offset": 0,
        "slot": "6",
        "type": "t_mapping(t_address,t_uint256)"
      },
      {
        "astId": 311,
        "contract": "contracts/REFLEXInsurance.sol:REFLEXInsurance",
        "label": "poolBalance",
        "offset": 0,
        "slot": "7",
        "type": "t_uint256"
      },
      {
        "astId": 313,
        "contract": "contracts/REFLEXInsurance.sol:REFLEXInsurance",
        "label": "subscriptionInitialized",
        "offset": 0,
        "slot": "8",
        "type": "t_bool"
      }
    ],
    "types": {
      "t_address": {
        "encoding": "inplace",
        "label": "address",
        "numberOfBytes": "20"
      },
      "t_bool": {
        "encoding": "inplace",
        "label": "bool",
        "numberOfBytes": "1"
      },
      "t_mapping(t_address,t_bool)": {
        "encoding": "mapping",
        "key": "t_address",
        "label": "mapping(address => bool)",
        "numberOfBytes": "32",
        "value": "t_bool"
      },
      "t_mapping(t_address,t_uint256)": {
        "encoding": "mapping",
        "key": "t_address",
        "label": "mapping(address => uint256)",
        "numberOfBytes": "32",
        "value": "t_uint256"
      },
      "t_mapping(t_uint256,t_bool)": {
        "encoding": "mapping",
        "key": "t_uint256",
        "label": "mapping(uint256 => bool)",
        "numberOfBytes": "32",
        "value": "t_bool"
      },
      "t_uint256": {
        "encoding": "inplace",
        "label": "uint256",
        "numberOfBytes": "32"
      }
    }
  }
}