{
  "address": "0xDd49a6BbB1b84b5BE744b3Ef7618783F41f0EBAD",
  "abi": [
    {
      "inputs": [
        {
          "internalType": "address",
          "name": "_vault",
          "type": "address"
        },
        {
          "internalType": "address",
          "name": "_reactivityPrecompile",
          "type": "address"
        }
      ],
      "stateMutability": "nonpayable",
      "type": "constructor"
    },
    {
      "inputs": [
        {
          "internalType": "address",
          "name": "owner",
          "type": "address"
        }
      ],
      "name": "OwnableInvalidOwner",
      "type": "error"
    },
    {
      "inputs": [
        {
          "internalType": "address",
          "name": "account",
          "type": "address"
        }
      ],
      "name": "OwnableUnauthorizedAccount",
      "type": "error"
    },
    {
      "inputs": [],
      "name": "ReentrancyGuardReentrantCall",
      "type": "error"
    },
    {
      "inputs": [
        {
          "internalType": "address",
          "name": "caller",
          "type": "address"
        }
      ],
      "name": "UnauthorizedCaller",
      "type": "error"
    },
    {
      "anonymous": false,
      "inputs": [
        {
          "indexed": true,
          "internalType": "address",
          "name": "user",
          "type": "address"
        },
        {
          "indexed": false,
          "internalType": "uint256",
          "name": "coverageAmount",
          "type": "uint256"
        },
        {
          "indexed": false,
          "internalType": "uint256",
          "name": "premium",
          "type": "uint256"
        }
      ],
      "name": "CoveragePurchased",
      "type": "event"
    },
    {
      "anonymous": false,
      "inputs": [
        {
          "indexed": true,
          "internalType": "address",
          "name": "user",
          "type": "address"
        },
        {
          "indexed": false,
          "internalType": "uint256",
          "name": "payout",
          "type": "uint256"
        }
      ],
      "name": "InsurancePaid",
      "type": "event"
    },
    {
      "anonymous": false,
      "inputs": [
        {
          "indexed": true,
          "internalType": "address",
          "name": "previousOwner",
          "type": "address"
        },
        {
          "indexed": true,
          "internalType": "address",
          "name": "newOwner",
          "type": "address"
        }
      ],
      "name": "OwnershipTransferred",
      "type": "event"
    },
    {
      "anonymous": false,
      "inputs": [
        {
          "indexed": true,
          "internalType": "address",
          "name": "user",
          "type": "address"
        }
      ],
      "name": "UninsuredProtection",
      "type": "event"
    },
    {
      "inputs": [],
      "name": "ON_EVENT_SELECTOR",
      "outputs": [
        {
          "internalType": "bytes4",
          "name": "",
          "type": "bytes4"
        }
      ],
      "stateMutability": "view",
      "type": "function"
    },
    {
      "inputs": [],
      "name": "PROTECTION_TRIGGERED_TOPIC",
      "outputs": [
        {
          "internalType": "bytes32",
          "name": "",
          "type": "bytes32"
        }
      ],
      "stateMutability": "view",
      "type": "function"
    },
    {
      "inputs": [
        {
          "internalType": "uint256",
          "name": "subId",
          "type": "uint256"
        }
      ],
      "name": "configureSubscription",
      "outputs": [],
      "stateMutability": "nonpayable",
      "type": "function"
    },
    {
      "inputs": [
        {
          "internalType": "address",
          "name": "",
          "type": "address"
        }
      ],
      "name": "coverageAmount",
      "outputs": [
        {
          "internalType": "uint256",
          "name": "",
          "type": "uint256"
        }
      ],
      "stateMutability": "view",
      "type": "function"
    },
    {
      "inputs": [],
      "name": "depositPool",
      "outputs": [],
      "stateMutability": "payable",
      "type": "function"
    },
    {
      "inputs": [
        {
          "internalType": "address",
          "name": "",
          "type": "address"
        }
      ],
      "name": "insured",
      "outputs": [
        {
          "internalType": "bool",
          "name": "",
          "type": "bool"
        }
      ],
      "stateMutability": "view",
      "type": "function"
    },
    {
      "inputs": [
        {
          "internalType": "address",
          "name": "emitter",
          "type": "address"
        },
        {
          "internalType": "bytes32[]",
          "name": "eventTopics",
          "type": "bytes32[]"
        },
        {
          "internalType": "bytes",
          "name": "data",
          "type": "bytes"
        }
      ],
      "name": "onEvent",
      "outputs": [],
      "stateMutability": "nonpayable",
      "type": "function"
    },
    {
      "inputs": [],
      "name": "owner",
      "outputs": [
        {
          "internalType": "address",
          "name": "",
          "type": "address"
        }
      ],
      "stateMutability": "view",
      "type": "function"
    },
    {
      "inputs": [],
      "name": "poolBalance",
      "outputs": [
        {
          "internalType": "uint256",
          "name": "",
          "type": "uint256"
        }
      ],
      "stateMutability": "view",
      "type": "function"
    },
    {
      "inputs": [
        {
          "internalType": "address",
          "name": "",
          "type": "address"
        }
      ],
      "name": "premiumsPaid",
      "outputs": [
        {
          "internalType": "uint256",
          "name": "",
          "type": "uint256"
        }
      ],
      "stateMutability": "view",
      "type": "function"
    },
    {
      "inputs": [
        {
          "internalType": "uint256",
          "name": "coverage",
          "type": "uint256"
        }
      ],
      "name": "purchaseCoverage",
      "outputs": [],
      "stateMutability": "payable",
      "type": "function"
    },
    {
      "inputs": [],
      "name": "renounceOwnership",
      "outputs": [],
      "stateMutability": "nonpayable",
      "type": "function"
    },
    {
      "inputs": [
        {
          "internalType": "uint256",
          "name": "",
          "type": "uint256"
        }
      ],
      "name": "subscriptionIds",
      "outputs": [
        {
          "internalType": "bool",
          "name": "",
          "type": "bool"
        }
      ],
      "stateMutability": "view",
      "type": "function"
    },
    {
      "inputs": [],
      "name": "subscriptionInitialized",
      "outputs": [
        {
          "internalType": "bool",
          "name": "",
          "type": "bool"
        }
      ],
      "stateMutability": "view",
      "type": "function"
    },
    {
      "inputs": [
        {
          "internalType": "address",
          "name": "newOwner",
          "type": "address"
        }
      ],
      "name": "transferOwnership",
      "outputs": [],
      "stateMutability": "nonpayable",
      "type": "function"
    },
    {
      "inputs": [],
      "name": "vault",
      "outputs": [
        {
          "internalType": "address",
          "name": "",
          "type": "address"
        }
      ],
      "stateMutability": "view",
      "type": "function"
    },
    {
      "inputs": [
        {
          "internalType": "uint256",
          "name": "amount",
          "type": "uint256"
        }
      ],
      "name": "withdrawPool",
      "outputs": [],
      "stateMutability": "nonpayable",
      "type": "function"
    }
  ],
  "transactionHash": "0x10fc0549eea0b64f3657dd612199f65bdf7fc44c662cfb4c70c42c3b29fbf9e4",
  "args": [
    "0x34C72450cC4a34Cf0BD4c24dDa64310c96CFd001",
    "0x0000000000000000000000000000000000000100"
  ],
  "numDeployments": 4,
  "solcInputHash": "d0e0deb1fda56d4721a3062da5f14931",
  "bytecode": "0x60a060405234801561001057600080fd5b50604051610d8d380380610d8d83398101604081905261002f91610104565b6001600160a01b03811660805260018055338061006657604051631e4fbdf760e01b81526000600482015260240160405180910390fd5b61006f81610096565b5050600380546001600160a01b0319166001600160a01b0392909216919091179055610137565b600280546001600160a01b038381166001600160a01b0319831681179093556040519116919082907f8be0079c531659141344cd1fd0a4f28419497f9722a3daafe3b4186f6b6457e090600090a35050565b80516001600160a01b03811681146100ff57600080fd5b919050565b6000806040838503121561011757600080fd5b610120836100e8565b915061012e602084016100e8565b90509250929050565b608051610c3b61015260003960006105520152610c3b6000f3fe6080604052600436106100fe5760003560e01c80638cafc358116100955780639752e23b116100645780639752e23b146102de578063e6ed9e271461030e578063e80b102514610342578063f2fde38b14610355578063fbfa77cf1461037557600080fd5b80638cafc3581461023c5780638da5cb5b1461027c5780639559099d146102ae57806396365d44146102c857600080fd5b80634c034ea9116100d15780634c034ea91461019a57806353edf33d146101ba5780635f19205f146101da578063715018a61461022757600080fd5b80631ef67a1e14610103578063293e571c146101255780632a343709146101655780632c7d189b1461016d575b600080fd5b34801561010f57600080fd5b5061012361011e366004610a22565b610395565b005b34801561013157600080fd5b50610152610140366004610a57565b60046020526000908152604090205481565b6040519081526020015b60405180910390f35b610123610414565b34801561017957600080fd5b50610152610188366004610a57565b60066020526000908152604090205481565b3480156101a657600080fd5b506101236101b5366004610a22565b610435565b3480156101c657600080fd5b506101236101d5366004610ac2565b610547565b3480156101e657600080fd5b5061020e7f53edf33dfa8f0dcf67d44af696afb049c917f43cd752c3bb16b10eac8ce8c9df81565b6040516001600160e01b0319909116815260200161015c565b34801561023357600080fd5b506101236105a6565b34801561024857600080fd5b5061026c610257366004610a22565b60006020819052908152604090205460ff1681565b604051901515815260200161015c565b34801561028857600080fd5b506002546001600160a01b03165b6040516001600160a01b03909116815260200161015c565b3480156102ba57600080fd5b5060085461026c9060ff1681565b3480156102d457600080fd5b5061015260075481565b3480156102ea57600080fd5b5061026c6102f9366004610a57565b60056020526000908152604090205460ff1681565b34801561031a57600080fd5b506101527f4e1d93c553ac218cc20894fa5c15f44f8d4fbaedf815bba3197c738be7533dcf81565b610123610350366004610a22565b6105ba565b34801561036157600080fd5b50610123610370366004610a57565b610715565b34801561038157600080fd5b50600354610296906001600160a01b031681565b61039d610750565b600081116103e95760405162461bcd60e51b815260206004820152601460248201527324b73b30b634b21039bab139b1b934b83a34b7b760611b60448201526064015b60405180910390fd5b60009081526020819052604090208054600160ff199182168117909255600880549091169091179055565b61041c610750565b346007600082825461042e9190610b8a565b9091555050565b61043d610750565b61044561077d565b60075481111561048e5760405162461bcd60e51b81526020600482015260146024820152734578636565647320706f6f6c2062616c616e636560601b60448201526064016103e0565b80600760008282546104a09190610ba3565b90915550506002546040516000916001600160a01b03169083908381818185875af1925050503d80600081146104f2576040519150601f19603f3d011682016040523d82523d6000602084013e6104f7565b606091505b505090508061053a5760405162461bcd60e51b815260206004820152600f60248201526e151c985b9cd9995c8819985a5b1959608a1b60448201526064016103e0565b5061054460018055565b50565b336001600160a01b037f000000000000000000000000000000000000000000000000000000000000000016146105925760405163d86ad9cf60e01b81523360048201526024016103e0565b61059f85858585856107a7565b5050505050565b6105ae610750565b6105b860006109d0565b565b6105c261077d565b600081116106125760405162461bcd60e51b815260206004820152601960248201527f436f766572616765206d757374206265206e6f6e2d7a65726f0000000000000060448201526064016103e0565b6000612710610622606484610bb6565b61062c9190610bcd565b9050803410156106755760405162461bcd60e51b8152602060048201526014602482015273496e73756666696369656e74207072656d69756d60601b60448201526064016103e0565b336000908152600560209081526040808320805460ff19166001179055600682528083208590556004909152812080543492906106b3908490610b8a565b9250508190555034600760008282546106cc9190610b8a565b90915550506040805183815234602082015233917fb56cb2ea01754ecaf0532cca8a69b1683ecc3dac9ab49e3c41421ffec172166f910160405180910390a25061054460018055565b61071d610750565b6001600160a01b03811661074757604051631e4fbdf760e01b8152600060048201526024016103e0565b610544816109d0565b6002546001600160a01b031633146105b85760405163118cdaa760e01b81523360048201526024016103e0565b6002600154036107a057604051633ee5aeb560e01b815260040160405180910390fd5b6002600155565b60085460ff1615806107c757506003546001600160a01b03868116911614155b61059f576002831061059f576000848460018181106107e8576107e8610bef565b6001600160a01b03602091820293909301359283166000908152600590915260409020549192505060ff16610851576040516001600160a01b038216907f2baf3c11e8ded7c179f3570197aeaa564a57267288a2459fd4cb39049489dd7590600090a25061059f565b6001600160a01b03811660009081526006602052604090205460075481111561087b57505061059f565b6000600a60075461088c9190610bcd565b9050600081831061089d578161089f565b825b905080600760008282546108b39190610ba3565b90915550506001600160a01b0384166000818152600560209081526040808320805460ff1916905560069091528082208290555190919083908381818185875af1925050503d8060008114610924576040519150601f19603f3d011682016040523d82523d6000602084013e610929565b606091505b50509050806109815781600760008282546109449190610b8a565b909155505050506001600160a01b03929092166000908152600560209081526040808320805460ff1916600117905560069091529020555061059f565b846001600160a01b03167fa976db6a1ab2b2119ca95cf2715193b8b35e6834d94eb5a3647ca8d6d2314b4b836040516109bc91815260200190565b60405180910390a250505050505050505050565b600280546001600160a01b038381166001600160a01b0319831681179093556040519116919082907f8be0079c531659141344cd1fd0a4f28419497f9722a3daafe3b4186f6b6457e090600090a35050565b600060208284031215610a3457600080fd5b5035919050565b80356001600160a01b0381168114610a5257600080fd5b919050565b600060208284031215610a6957600080fd5b610a7282610a3b565b9392505050565b60008083601f840112610a8b57600080fd5b50813567ffffffffffffffff811115610aa357600080fd5b602083019150836020828501011115610abb57600080fd5b9250929050565b600080600080600060608688031215610ada57600080fd5b610ae386610a3b565b9450602086013567ffffffffffffffff80821115610b0057600080fd5b818801915088601f830112610b1457600080fd5b813581811115610b2357600080fd5b8960208260051b8501011115610b3857600080fd5b602083019650809550506040880135915080821115610b5657600080fd5b50610b6388828901610a79565b969995985093965092949392505050565b634e487b7160e01b600052601160045260246000fd5b80820180821115610b9d57610b9d610b74565b92915050565b81810381811115610b9d57610b9d610b74565b8082028115828204841417610b9d57610b9d610b74565b600082610bea57634e487b7160e01b600052601260045260246000fd5b500490565b634e487b7160e01b600052603260045260246000fdfea2646970667358221220883d58fd90f7c278381fd52ec31b7da60e4475edb03e0d519de0b5787f85251964736f6c63430008180033",
  "devdoc": {
    "errors": {
      "OwnableInvalidOwner(address)": [
        {
          "details": "The owner is not a valid owner account. (eg. `address(0)`)"
        }
      ],
      "OwnableUnauthorizedAccount(address)": [
        {
          "details": "The caller account is not authorized to perform an operation."
        }
      ],
      "ReentrancyGuardReentrantCall()": [
        {
          "details": "Unauthorized reentrant call."
        }
      ]
    },
    "kind": "dev",
    "methods": {
      "constructor": {
        "params": {
          "_reactivityPrecompile": "Somnia Reactivity Precompile address                              (0x0100 on mainnet; mock address in tests).",
          "_vault": "REFLEXVault address whose events we watch."
        }
      },
      "owner()": {
        "details": "Returns the address of the current owner."
      },
      "purchaseCoverage(uint256)": {
        "params": {
          "coverage": "The maximum STT amount this policy will pay out."
        }
      },
      "renounceOwnership()": {
        "details": "Leaves the contract without owner. It will not be possible to call `onlyOwner` functions. Can only be called by the current owner. NOTE: Renouncing ownership will leave the contract without an owner, thereby disabling any functionality that is only available to the owner."
      },
      "transferOwnership(address)": {
        "details": "Transfers ownership of the contract to a new account (`newOwner`). Can only be called by the current owner."
      }
    },
    "version": 1
  },
  "userdoc": {
    "kind": "user",
    "methods": {
      "configureSubscription(uint256)": {
        "notice": "Records the live Reactivity subscription created by the         protocol operator for insurance payouts."
      },
      "purchaseCoverage(uint256)": {
        "notice": "Purchase insurance coverage for your vault position."
      },
      "withdrawPool(uint256)": {
        "notice": "Safety valve — owner can withdraw excess pool funds."
      }
    },
    "notice": "Autonomous insurance pool for REFLEX positions.         This contract subscribes — via Somnia Reactivity — to the vault's         ProtectionTriggered event. When the vault's reactive handler fires         and emits ProtectionTriggered, the Reactivity Precompile fires THIS         contract's handler in the same block. No keeper. No offchain relay.",
    "version": 1
  },
  "storageLayout": {
    "storage": [
      {
        "astId": 1448,
        "contract": "contracts/REFLEXInsurance.sol:REFLEXInsurance",
        "label": "subscriptionIds",
        "offset": 0,
        "slot": "0",
        "type": "t_mapping(t_uint256,t_bool)"
      },
      {
        "astId": 296,
        "contract": "contracts/REFLEXInsurance.sol:REFLEXInsurance",
        "label": "_status",
        "offset": 0,
        "slot": "1",
        "type": "t_uint256"
      },
      {
        "astId": 8,
        "contract": "contracts/REFLEXInsurance.sol:REFLEXInsurance",
        "label": "_owner",
        "offset": 0,
        "slot": "2",
        "type": "t_address"
      },
      {
        "astId": 400,
        "contract": "contracts/REFLEXInsurance.sol:REFLEXInsurance",
        "label": "vault",
        "offset": 0,
        "slot": "3",
        "type": "t_address"
      },
      {
        "astId": 404,
        "contract": "contracts/REFLEXInsurance.sol:REFLEXInsurance",
        "label": "premiumsPaid",
        "offset": 0,
        "slot": "4",
        "type": "t_mapping(t_address,t_uint256)"
      },
      {
        "astId": 408,
        "contract": "contracts/REFLEXInsurance.sol:REFLEXInsurance",
        "label": "insured",
        "offset": 0,
        "slot": "5",
        "type": "t_mapping(t_address,t_bool)"
      },
      {
        "astId": 412,
        "contract": "contracts/REFLEXInsurance.sol:REFLEXInsurance",
        "label": "coverageAmount",
        "offset": 0,
        "slot": "6",
        "type": "t_mapping(t_address,t_uint256)"
      },
      {
        "astId": 414,
        "contract": "contracts/REFLEXInsurance.sol:REFLEXInsurance",
        "label": "poolBalance",
        "offset": 0,
        "slot": "7",
        "type": "t_uint256"
      },
      {
        "astId": 416,
        "contract": "contracts/REFLEXInsurance.sol:REFLEXInsurance",
        "label": "subscriptionInitialized",
        "offset": 0,
        "slot": "8",
        "type": "t_bool"
      }
    ],
    "types": {
      "t_address": {
        "encoding": "inplace",
        "label": "address",
        "numberOfBytes": "20"
      },
      "t_bool": {
        "encoding": "inplace",
        "label": "bool",
        "numberOfBytes": "1"
      },
      "t_mapping(t_address,t_bool)": {
        "encoding": "mapping",
        "key": "t_address",
        "label": "mapping(address => bool)",
        "numberOfBytes": "32",
        "value": "t_bool"
      },
      "t_mapping(t_address,t_uint256)": {
        "encoding": "mapping",
        "key": "t_address",
        "label": "mapping(address => uint256)",
        "numberOfBytes": "32",
        "value": "t_uint256"
      },
      "t_mapping(t_uint256,t_bool)": {
        "encoding": "mapping",
        "key": "t_uint256",
        "label": "mapping(uint256 => bool)",
        "numberOfBytes": "32",
        "value": "t_bool"
      },
      "t_uint256": {
        "encoding": "inplace",
        "label": "uint256",
        "numberOfBytes": "32"
      }
    }
  }
}