{
  "address": "0x34C72450cC4a34Cf0BD4c24dDa64310c96CFd001",
  "abi": [
    {
      "inputs": [
        {
          "internalType": "address",
          "name": "_priceOracle",
          "type": "address"
        },
        {
          "internalType": "bytes32",
          "name": "_priceUpdateTopic",
          "type": "bytes32"
        },
        {
          "internalType": "address",
          "name": "_precompileAddress",
          "type": "address"
        }
      ],
      "stateMutability": "nonpayable",
      "type": "constructor"
    },
    {
      "inputs": [],
      "name": "EnforcedPause",
      "type": "error"
    },
    {
      "inputs": [],
      "name": "ExpectedPause",
      "type": "error"
    },
    {
      "inputs": [
        {
          "internalType": "address",
          "name": "owner",
          "type": "address"
        }
      ],
      "name": "OwnableInvalidOwner",
      "type": "error"
    },
    {
      "inputs": [
        {
          "internalType": "address",
          "name": "account",
          "type": "address"
        }
      ],
      "name": "OwnableUnauthorizedAccount",
      "type": "error"
    },
    {
      "inputs": [],
      "name": "ReentrancyGuardReentrantCall",
      "type": "error"
    },
    {
      "inputs": [
        {
          "internalType": "address",
          "name": "caller",
          "type": "address"
        }
      ],
      "name": "UnauthorizedCaller",
      "type": "error"
    },
    {
      "anonymous": false,
      "inputs": [
        {
          "indexed": true,
          "internalType": "address",
          "name": "user",
          "type": "address"
        },
        {
          "indexed": false,
          "internalType": "uint256",
          "name": "collateralReturned",
          "type": "uint256"
        }
      ],
      "name": "EmergencyExit",
      "type": "event"
    },
    {
      "anonymous": false,
      "inputs": [
        {
          "indexed": true,
          "internalType": "address",
          "name": "previousOwner",
          "type": "address"
        },
        {
          "indexed": true,
          "internalType": "address",
          "name": "newOwner",
          "type": "address"
        }
      ],
      "name": "OwnershipTransferred",
      "type": "event"
    },
    {
      "anonymous": false,
      "inputs": [
        {
          "indexed": false,
          "internalType": "address",
          "name": "account",
          "type": "address"
        }
      ],
      "name": "Paused",
      "type": "event"
    },
    {
      "anonymous": false,
      "inputs": [
        {
          "indexed": true,
          "internalType": "address",
          "name": "user",
          "type": "address"
        },
        {
          "indexed": false,
          "internalType": "uint256",
          "name": "ratio",
          "type": "uint256"
        }
      ],
      "name": "PositionAtRisk",
      "type": "event"
    },
    {
      "anonymous": false,
      "inputs": [
        {
          "indexed": true,
          "internalType": "address",
          "name": "user",
          "type": "address"
        },
        {
          "indexed": false,
          "internalType": "uint256",
          "name": "returned",
          "type": "uint256"
        }
      ],
      "name": "PositionClosed",
      "type": "event"
    },
    {
      "anonymous": false,
      "inputs": [
        {
          "indexed": true,
          "internalType": "address",
          "name": "user",
          "type": "address"
        },
        {
          "indexed": false,
          "internalType": "uint256",
          "name": "collateral",
          "type": "uint256"
        },
        {
          "indexed": false,
          "internalType": "uint256",
          "name": "debt",
          "type": "uint256"
        },
        {
          "indexed": false,
          "internalType": "uint256",
          "name": "subscriptionId",
          "type": "uint256"
        }
      ],
      "name": "PositionOpened",
      "type": "event"
    },
    {
      "anonymous": false,
      "inputs": [
        {
          "indexed": true,
          "internalType": "address",
          "name": "user",
          "type": "address"
        },
        {
          "indexed": false,
          "internalType": "uint256",
          "name": "ratio",
          "type": "uint256"
        },
        {
          "indexed": false,
          "internalType": "uint256",
          "name": "price",
          "type": "uint256"
        }
      ],
      "name": "ProtectionTriggered",
      "type": "event"
    },
    {
      "anonymous": false,
      "inputs": [
        {
          "indexed": false,
          "internalType": "uint256",
          "name": "subscriptionId",
          "type": "uint256"
        }
      ],
      "name": "SharedSubscriptionConfigured",
      "type": "event"
    },
    {
      "anonymous": false,
      "inputs": [
        {
          "indexed": false,
          "internalType": "address",
          "name": "account",
          "type": "address"
        }
      ],
      "name": "Unpaused",
      "type": "event"
    },
    {
      "inputs": [],
      "name": "MIN_COLLATERAL_RATIO",
      "outputs": [
        {
          "internalType": "uint256",
          "name": "",
          "type": "uint256"
        }
      ],
      "stateMutability": "view",
      "type": "function"
    },
    {
      "inputs": [],
      "name": "MIN_POSITION_COLLATERAL",
      "outputs": [
        {
          "internalType": "uint256",
          "name": "",
          "type": "uint256"
        }
      ],
      "stateMutability": "view",
      "type": "function"
    },
    {
      "inputs": [],
      "name": "ON_EVENT_SELECTOR",
      "outputs": [
        {
          "internalType": "bytes4",
          "name": "",
          "type": "bytes4"
        }
      ],
      "stateMutability": "view",
      "type": "function"
    },
    {
      "inputs": [],
      "name": "PRICE_PRECISION",
      "outputs": [
        {
          "internalType": "uint256",
          "name": "",
          "type": "uint256"
        }
      ],
      "stateMutability": "view",
      "type": "function"
    },
    {
      "inputs": [],
      "name": "PROTOCOL_FEE_BPS",
      "outputs": [
        {
          "internalType": "uint256",
          "name": "",
          "type": "uint256"
        }
      ],
      "stateMutability": "view",
      "type": "function"
    },
    {
      "inputs": [
        {
          "internalType": "uint256",
          "name": "",
          "type": "uint256"
        }
      ],
      "name": "activeUsers",
      "outputs": [
        {
          "internalType": "address",
          "name": "",
          "type": "address"
        }
      ],
      "stateMutability": "view",
      "type": "function"
    },
    {
      "inputs": [],
      "name": "closePosition",
      "outputs": [],
      "stateMutability": "nonpayable",
      "type": "function"
    },
    {
      "inputs": [
        {
          "internalType": "uint256",
          "name": "subscriptionId",
          "type": "uint256"
        }
      ],
      "name": "configureSharedSubscription",
      "outputs": [],
      "stateMutability": "nonpayable",
      "type": "function"
    },
    {
      "inputs": [],
      "name": "getSharedSubscriptionStatus",
      "outputs": [
        {
          "internalType": "uint256",
          "name": "subscriptionId",
          "type": "uint256"
        },
        {
          "internalType": "bool",
          "name": "active",
          "type": "bool"
        }
      ],
      "stateMutability": "view",
      "type": "function"
    },
    {
      "inputs": [
        {
          "internalType": "address",
          "name": "emitter",
          "type": "address"
        },
        {
          "internalType": "bytes32[]",
          "name": "eventTopics",
          "type": "bytes32[]"
        },
        {
          "internalType": "bytes",
          "name": "data",
          "type": "bytes"
        }
      ],
      "name": "onEvent",
      "outputs": [],
      "stateMutability": "nonpayable",
      "type": "function"
    },
    {
      "inputs": [
        {
          "internalType": "uint256",
          "name": "debt",
          "type": "uint256"
        },
        {
          "internalType": "uint256",
          "name": "protectionRatio",
          "type": "uint256"
        }
      ],
      "name": "openPosition",
      "outputs": [],
      "stateMutability": "payable",
      "type": "function"
    },
    {
      "inputs": [],
      "name": "owner",
      "outputs": [
        {
          "internalType": "address",
          "name": "",
          "type": "address"
        }
      ],
      "stateMutability": "view",
      "type": "function"
    },
    {
      "inputs": [],
      "name": "pause",
      "outputs": [],
      "stateMutability": "nonpayable",
      "type": "function"
    },
    {
      "inputs": [],
      "name": "paused",
      "outputs": [
        {
          "internalType": "bool",
          "name": "",
          "type": "bool"
        }
      ],
      "stateMutability": "view",
      "type": "function"
    },
    {
      "inputs": [
        {
          "internalType": "address",
          "name": "",
          "type": "address"
        }
      ],
      "name": "positions",
      "outputs": [
        {
          "internalType": "uint256",
          "name": "collateral",
          "type": "uint256"
        },
        {
          "internalType": "uint256",
          "name": "debt",
          "type": "uint256"
        },
        {
          "internalType": "uint256",
          "name": "openedAt",
          "type": "uint256"
        },
        {
          "internalType": "bool",
          "name": "active",
          "type": "bool"
        },
        {
          "internalType": "uint256",
          "name": "subscriptionId",
          "type": "uint256"
        },
        {
          "internalType": "uint256",
          "name": "protectionRatio",
          "type": "uint256"
        }
      ],
      "stateMutability": "view",
      "type": "function"
    },
    {
      "inputs": [],
      "name": "priceOracle",
      "outputs": [
        {
          "internalType": "address",
          "name": "",
          "type": "address"
        }
      ],
      "stateMutability": "view",
      "type": "function"
    },
    {
      "inputs": [],
      "name": "priceUpdateTopic",
      "outputs": [
        {
          "internalType": "bytes32",
          "name": "",
          "type": "bytes32"
        }
      ],
      "stateMutability": "view",
      "type": "function"
    },
    {
      "inputs": [],
      "name": "renounceOwnership",
      "outputs": [],
      "stateMutability": "nonpayable",
      "type": "function"
    },
    {
      "inputs": [
        {
          "internalType": "address",
          "name": "_oracle",
          "type": "address"
        }
      ],
      "name": "setPriceOracle",
      "outputs": [],
      "stateMutability": "nonpayable",
      "type": "function"
    },
    {
      "inputs": [
        {
          "internalType": "bytes32",
          "name": "_topic",
          "type": "bytes32"
        }
      ],
      "name": "setPriceUpdateTopic",
      "outputs": [],
      "stateMutability": "nonpayable",
      "type": "function"
    },
    {
      "inputs": [],
      "name": "sharedSubscriptionId",
      "outputs": [
        {
          "internalType": "uint256",
          "name": "",
          "type": "uint256"
        }
      ],
      "stateMutability": "view",
      "type": "function"
    },
    {
      "inputs": [
        {
          "internalType": "uint256",
          "name": "",
          "type": "uint256"
        }
      ],
      "name": "subscriptionIds",
      "outputs": [
        {
          "internalType": "bool",
          "name": "",
          "type": "bool"
        }
      ],
      "stateMutability": "view",
      "type": "function"
    },
    {
      "inputs": [],
      "name": "subscriptionInitialized",
      "outputs": [
        {
          "internalType": "bool",
          "name": "",
          "type": "bool"
        }
      ],
      "stateMutability": "view",
      "type": "function"
    },
    {
      "inputs": [],
      "name": "topUpCollateral",
      "outputs": [],
      "stateMutability": "payable",
      "type": "function"
    },
    {
      "inputs": [
        {
          "internalType": "address",
          "name": "newOwner",
          "type": "address"
        }
      ],
      "name": "transferOwnership",
      "outputs": [],
      "stateMutability": "nonpayable",
      "type": "function"
    },
    {
      "inputs": [],
      "name": "unpause",
      "outputs": [],
      "stateMutability": "nonpayable",
      "type": "function"
    }
  ],
  "transactionHash": "0xb8473e3a29f1099bc0ca25d444dce9d22e1b9117db54a2cbe9d0c1a9450c6459",
  "args": [
    "0xE85e5ac4F5Ac9987E28304d8f427f1ca6746a3E0",
    "0xb556fac599c3c70efb9ab1fa725ecace6c81cc48d1455f886607def065f3e0c0",
    "0x0000000000000000000000000000000000000100"
  ],
  "numDeployments": 4,
  "solcInputHash": "d0e0deb1fda56d4721a3062da5f14931",
  "bytecode": "0x60a06040523480156200001157600080fd5b50604051620015dd380380620015dd833981016040819052620000349162000112565b6001600160a01b0381166080526001805533806200006c57604051631e4fbdf760e01b81526000600482015260240160405180910390fd5b6200007781620000a3565b5050600680546001600160a01b0319166001600160a01b03939093169290921790915560075562000153565b600280546001600160a01b038381166001600160a01b0319831681179093556040519116919082907f8be0079c531659141344cd1fd0a4f28419497f9722a3daafe3b4186f6b6457e090600090a35050565b80516001600160a01b03811681146200010d57600080fd5b919050565b6000806000606084860312156200012857600080fd5b6200013384620000f5565b9250602084015191506200014a60408501620000f5565b90509250925092565b60805161146e6200016f6000396000610809015261146e6000f3fe6080604052600436106101815760003560e01c8063715018a6116100d157806395082d251161008a578063bb4b992011610064578063bb4b9920146104b6578063be378228146104d6578063c393d0e3146104eb578063f2fde38b1461050057600080fd5b806395082d25146104785780639559099d14610494578063ba78b742146104ae57600080fd5b8063715018a6146103cb5780637a9fffb7146103e0578063803ae518146103f55780638456cb59146104155780638cafc3581461042a5780638da5cb5b1461045a57600080fd5b8063530e784f1161013e5780635c975abb116101185780635c975abb1461031d5780635d9a8e72146103485780635f19205f1461035e57806364e2f59d146103ab57600080fd5b8063530e784f1461025757806353edf33d1461027757806355f575101461029757600080fd5b806316eb04ce146101865780632630c12f146101b657806328f2f5d7146101ee5780633012b05c14610217578063368324c71461022c5780633f4ba83a14610242575b600080fd5b34801561019257600080fd5b5060085460095460ff16604080519283529015156020830152015b60405180910390f35b3480156101c257600080fd5b506006546101d6906001600160a01b031681565b6040516001600160a01b0390911681526020016101ad565b3480156101fa57600080fd5b50610209662386f26fc1000081565b6040519081526020016101ad565b61022a61022536600461121d565b610520565b005b34801561023857600080fd5b5061020960085481565b34801561024e57600080fd5b5061022a6107c2565b34801561026357600080fd5b5061022a61027236600461125b565b6107d4565b34801561028357600080fd5b5061022a6102923660046112c6565b6107fe565b3480156102a357600080fd5b506102ee6102b236600461125b565b600360208190526000918252604090912080546001820154600283015493830154600484015460059094015492949193919260ff909116919086565b6040805196875260208701959095529385019290925215156060840152608083015260a082015260c0016101ad565b34801561032957600080fd5b50600254600160a01b900460ff165b60405190151581526020016101ad565b34801561035457600080fd5b5061020960075481565b34801561036a57600080fd5b506103927f53edf33dfa8f0dcf67d44af696afb049c917f43cd752c3bb16b10eac8ce8c9df81565b6040516001600160e01b031990911681526020016101ad565b3480156103b757600080fd5b5061022a6103c6366004611378565b61085d565b3480156103d757600080fd5b5061022a61086a565b3480156103ec57600080fd5b50610209607881565b34801561040157600080fd5b506101d6610410366004611378565b61087c565b34801561042157600080fd5b5061022a6108a6565b34801561043657600080fd5b50610338610445366004611378565b60006020819052908152604090205460ff1681565b34801561046657600080fd5b506002546001600160a01b03166101d6565b34801561048457600080fd5b50610209670de0b6b3a764000081565b3480156104a057600080fd5b506009546103389060ff1681565b61022a6108b6565b3480156104c257600080fd5b5061022a6104d1366004611378565b61097d565b3480156104e257600080fd5b50610209600a81565b3480156104f757600080fd5b5061022a610a2f565b34801561050c57600080fd5b5061022a61051b36600461125b565b610aad565b610528610aeb565b610530610b15565b60095460ff1661057d5760405162461bcd60e51b81526020600482015260136024820152724d6f6e69746f72696e6720696e61637469766560681b60448201526064015b60405180910390fd5b336000908152600360208190526040909120015460ff16156105e15760405162461bcd60e51b815260206004820152601760248201527f506f736974696f6e20616c7265616479206163746976650000000000000000006044820152606401610574565b600082116106295760405162461bcd60e51b815260206004820152601560248201527444656274206d757374206265206e6f6e2d7a65726f60581b6044820152606401610574565b60788111801561063b57506101f48111155b6106965760405162461bcd60e51b815260206004820152602660248201527f70726f74656374696f6e526174696f206f7574206f662072616e6765205b3132604482015265312c3530305d60d01b6064820152608401610574565b662386f26fc100003410156106e25760405162461bcd60e51b8152602060048201526012602482015271436f6c6c61746572616c20746f6f206c6f7760701b6044820152606401610574565b6040805160c081018252348082526020808301868152428486019081526001606086018181526008546080880190815260a088018a81523360008181526003988990529a909a2098518955945192880192909255915160028701559051928501805460ff19169315159390931790925590516004840155516005909201919091559061076d90610b40565b60085460408051838152602081018690529081019190915233907f4ca7a949faea3991220c7d0e8f0c046ff68acb12d1a6052bec5b2fd036c724fc9060600160405180910390a2506107be60018055565b5050565b6107ca610bbd565b6107d2610bea565b565b6107dc610bbd565b600680546001600160a01b0319166001600160a01b0392909216919091179055565b336001600160a01b037f000000000000000000000000000000000000000000000000000000000000000016146108495760405163d86ad9cf60e01b8152336004820152602401610574565b6108568585858585610c3f565b5050505050565b610865610bbd565b600755565b610872610bbd565b6107d26000610e06565b6004818154811061088c57600080fd5b6000918252602090912001546001600160a01b0316905081565b6108ae610bbd565b6107d2610e58565b6108be610aeb565b6108c6610b15565b3360009081526003602081905260409091209081015460ff166109205760405162461bcd60e51b815260206004820152601260248201527127379030b1ba34bb32903837b9b4ba34b7b760711b6044820152606401610574565b6000341161095d5760405162461bcd60e51b815260206004820152600a6024820152695a65726f2076616c756560b01b6044820152606401610574565b3481600001600082825461097191906113a7565b90915550506001805550565b610985610bbd565b600081116109cc5760405162461bcd60e51b815260206004820152601460248201527324b73b30b634b21039bab139b1b934b83a34b7b760611b6044820152606401610574565b600881905560098054600160ff199182168117909255600083815260208181526040918290208054909316909317909155518281527f1bf95c058034d614717add7a7874f49e16f01f1382601d17c1ec80d106542416910160405180910390a150565b610a37610aeb565b610a3f610b15565b3360009081526003602081905260409091209081015460ff16610a995760405162461bcd60e51b815260206004820152601260248201527127379030b1ba34bb32903837b9b4ba34b7b760711b6044820152606401610574565b610aa33382610e9b565b506107d260018055565b610ab5610bbd565b6001600160a01b038116610adf57604051631e4fbdf760e01b815260006004820152602401610574565b610ae881610e06565b50565b600260015403610b0e57604051633ee5aeb560e01b815260040160405180910390fd5b6002600155565b600254600160a01b900460ff16156107d25760405163d93c066560e01b815260040160405180910390fd5b6001600160a01b03811660009081526005602052604090205415610b615750565b600480546001810182557f8a35acfbc15ff81a39ae7d344fd709f28e8600b4aa8c65c6b64bfe7fe36bd19b0180546001600160a01b039093166001600160a01b0319909316831790555460009182526005602052604090912055565b6002546001600160a01b031633146107d25760405163118cdaa760e01b8152336004820152602401610574565b610bf2610fc7565b6002805460ff60a01b191690557f5db9ee0a495bf2e6ff9c91a7834c1ba4fdd244a5e8aa4e537bd38aeae4b073aa335b6040516001600160a01b03909116815260200160405180910390a1565b60095460ff1615610856576006546001600160a01b039081169086160361085657821580610c88575060075484846000818110610c7e57610c7e6113c0565b9050602002013514155b610856576000610c9a8284018461121d565b50905060005b600454811015610dfd57600060048281548110610cbf57610cbf6113c0565b60009182526020808320909101546001600160a01b03168083526003918290526040909220908101549192509060ff16610d0357610cfc82610ff1565b5050610ca0565b6000670de0b6b3a76400008260010154610d1d91906113d6565b8254610d2a9087906113d6565b610d359060646113d6565b610d3f91906113ed565b90508160050154811015610def5760408051828152602081018790526001600160a01b038516917f4e1d93c553ac218cc20894fa5c15f44f8d4fbaedf815bba3197c738be7533dcf910160405180910390a26078811015610dab57610da38361112b565b505050610ca0565b826001600160a01b03167f66561c134c03d4fcd00fcda606be67b5bbf5f45a0db56809e3ee58d5a67ffe8d82604051610de691815260200190565b60405180910390a25b836001019350505050610ca0565b50505050505050565b600280546001600160a01b038381166001600160a01b0319831681179093556040519116919082907f8be0079c531659141344cd1fd0a4f28419497f9722a3daafe3b4186f6b6457e090600090a35050565b610e60610b15565b6002805460ff60a01b1916600160a01b1790557f62e78cea01bee320cd4e420270b5ea74000d11b0c9f74754ebdbfc544b05a258610c223390565b60038101805460ff19169055610eb082610ff1565b6000612710600a8360000154610ec691906113d6565b610ed091906113ed565b90506000818360000154610ee4919061140f565b6000808555604051919250906001600160a01b0386169083908381818185875af1925050503d8060008114610f35576040519150601f19603f3d011682016040523d82523d6000602084013e610f3a565b606091505b5050905080610f7d5760405162461bcd60e51b815260206004820152600f60248201526e151c985b9cd9995c8819985a5b1959608a1b6044820152606401610574565b846001600160a01b03167fa9e0cdf27a7965d21573ebb808fbcb2c2a1cfd656e1ecf3f82549437b474067783604051610fb891815260200190565b60405180910390a25050505050565b600254600160a01b900460ff166107d257604051638dfc202b60e01b815260040160405180910390fd5b6001600160a01b03811660009081526005602052604081205490819003611016575050565b600061102360018361140f565b6004549091506000906110389060019061140f565b90508082146110d457600060048281548110611056576110566113c0565b600091825260209091200154600480546001600160a01b039092169250829185908110611085576110856113c0565b600091825260209091200180546001600160a01b0319166001600160a01b03929092169190911790556110b98360016113a7565b6001600160a01b039091166000908152600560205260409020555b60048054806110e5576110e5611422565b60008281526020808220830160001990810180546001600160a01b03191690559092019092556001600160a01b0395909516815260059094525050604082209190915550565b6001600160a01b038116600090815260036020819052604082208054918101805460ff1916905591825561115e83610ff1565b80156111d5576000836001600160a01b03168260405160006040518083038185875af1925050503d80600081146111b1576040519150601f19603f3d011682016040523d82523d6000602084013e6111b6565b606091505b50509050806111d357508155600301805460ff1916600117905550565b505b826001600160a01b03167ff779df072f94d207563b1ba8c286814086f1e6bb436a2652e307dccc56ed79e88260405161121091815260200190565b60405180910390a2505050565b6000806040838503121561123057600080fd5b50508035926020909101359150565b80356001600160a01b038116811461125657600080fd5b919050565b60006020828403121561126d57600080fd5b6112768261123f565b9392505050565b60008083601f84011261128f57600080fd5b50813567ffffffffffffffff8111156112a757600080fd5b6020830191508360208285010111156112bf57600080fd5b9250929050565b6000806000806000606086880312156112de57600080fd5b6112e78661123f565b9450602086013567ffffffffffffffff8082111561130457600080fd5b818801915088601f83011261131857600080fd5b81358181111561132757600080fd5b8960208260051b850101111561133c57600080fd5b60208301965080955050604088013591508082111561135a57600080fd5b506113678882890161127d565b969995985093965092949392505050565b60006020828403121561138a57600080fd5b5035919050565b634e487b7160e01b600052601160045260246000fd5b808201808211156113ba576113ba611391565b92915050565b634e487b7160e01b600052603260045260246000fd5b80820281158282048414176113ba576113ba611391565b60008261140a57634e487b7160e01b600052601260045260246000fd5b500490565b818103818111156113ba576113ba611391565b634e487b7160e01b600052603160045260246000fdfea26469706673582212202820166335f32690f4e5daf954d3110b8df34ead1fa6e251357e6d579365bb7c64736f6c63430008180033",
  "devdoc": {
    "errors": {
      "EnforcedPause()": [
        {
          "details": "The operation failed because the contract is paused."
        }
      ],
      "ExpectedPause()": [
        {
          "details": "The operation failed because the contract is not paused."
        }
      ],
      "OwnableInvalidOwner(address)": [
        {
          "details": "The owner is not a valid owner account. (eg. `address(0)`)"
        }
      ],
      "OwnableUnauthorizedAccount(address)": [
        {
          "details": "The caller account is not authorized to perform an operation."
        }
      ],
      "ReentrancyGuardReentrantCall()": [
        {
          "details": "Unauthorized reentrant call."
        }
      ]
    },
    "events": {
      "Paused(address)": {
        "details": "Emitted when the pause is triggered by `account`."
      },
      "Unpaused(address)": {
        "details": "Emitted when the pause is lifted by `account`."
      }
    },
    "kind": "dev",
    "methods": {
      "openPosition(uint256,uint256)": {
        "params": {
          "debt": "The amount of debt being taken on (in wei).",
          "protectionRatio": "The collateral-ratio floor at which the vault                         should intervene, e.g. 150 = 150%."
        }
      },
      "owner()": {
        "details": "Returns the address of the current owner."
      },
      "paused()": {
        "details": "Returns true if the contract is paused, and false otherwise."
      },
      "renounceOwnership()": {
        "details": "Leaves the contract without owner. It will not be possible to call `onlyOwner` functions. Can only be called by the current owner. NOTE: Renouncing ownership will leave the contract without an owner, thereby disabling any functionality that is only available to the owner."
      },
      "transferOwnership(address)": {
        "details": "Transfers ownership of the contract to a new account (`newOwner`). Can only be called by the current owner."
      }
    },
    "version": 1
  },
  "userdoc": {
    "kind": "user",
    "methods": {
      "closePosition()": {
        "notice": "Close a position, cancel the Reactivity subscription, and         return collateral minus the protocol fee."
      },
      "configureSharedSubscription(uint256)": {
        "notice": "Records the shared subscription created by the protocol operator.         On live Somnia, subscriptions are created directly on the         Reactivity precompile and target this contract's `onEvent` handler."
      },
      "openPosition(uint256,uint256)": {
        "notice": "Open a leveraged position protected by the protocol-wide shared         Reactivity subscription."
      },
      "setPriceOracle(address)": {
        "notice": "Update the oracle address that subscriptions filter on."
      },
      "topUpCollateral()": {
        "notice": "Add collateral to an existing position to improve its ratio."
      }
    },
    "version": 1
  },
  "storageLayout": {
    "storage": [
      {
        "astId": 1448,
        "contract": "contracts/REFLEXVault.sol:REFLEXVault",
        "label": "subscriptionIds",
        "offset": 0,
        "slot": "0",
        "type": "t_mapping(t_uint256,t_bool)"
      },
      {
        "astId": 296,
        "contract": "contracts/REFLEXVault.sol:REFLEXVault",
        "label": "_status",
        "offset": 0,
        "slot": "1",
        "type": "t_uint256"
      },
      {
        "astId": 8,
        "contract": "contracts/REFLEXVault.sol:REFLEXVault",
        "label": "_owner",
        "offset": 0,
        "slot": "2",
        "type": "t_address"
      },
      {
        "astId": 186,
        "contract": "contracts/REFLEXVault.sol:REFLEXVault",
        "label": "_paused",
        "offset": 20,
        "slot": "2",
        "type": "t_bool"
      },
      {
        "astId": 800,
        "contract": "contracts/REFLEXVault.sol:REFLEXVault",
        "label": "positions",
        "offset": 0,
        "slot": "3",
        "type": "t_mapping(t_address,t_struct(Position)795_storage)"
      },
      {
        "astId": 803,
        "contract": "contracts/REFLEXVault.sol:REFLEXVault",
        "label": "activeUsers",
        "offset": 0,
        "slot": "4",
        "type": "t_array(t_address)dyn_storage"
      },
      {
        "astId": 807,
        "contract": "contracts/REFLEXVault.sol:REFLEXVault",
        "label": "activeUserIndexPlusOne",
        "offset": 0,
        "slot": "5",
        "type": "t_mapping(t_address,t_uint256)"
      },
      {
        "astId": 809,
        "contract": "contracts/REFLEXVault.sol:REFLEXVault",
        "label": "priceOracle",
        "offset": 0,
        "slot": "6",
        "type": "t_address"
      },
      {
        "astId": 811,
        "contract": "contracts/REFLEXVault.sol:REFLEXVault",
        "label": "priceUpdateTopic",
        "offset": 0,
        "slot": "7",
        "type": "t_bytes32"
      },
      {
        "astId": 813,
        "contract": "contracts/REFLEXVault.sol:REFLEXVault",
        "label": "sharedSubscriptionId",
        "offset": 0,
        "slot": "8",
        "type": "t_uint256"
      },
      {
        "astId": 815,
        "contract": "contracts/REFLEXVault.sol:REFLEXVault",
        "label": "subscriptionInitialized",
        "offset": 0,
        "slot": "9",
        "type": "t_bool"
      }
    ],
    "types": {
      "t_address": {
        "encoding": "inplace",
        "label": "address",
        "numberOfBytes": "20"
      },
      "t_array(t_address)dyn_storage": {
        "base": "t_address",
        "encoding": "dynamic_array",
        "label": "address[]",
        "numberOfBytes": "32"
      },
      "t_bool": {
        "encoding": "inplace",
        "label": "bool",
        "numberOfBytes": "1"
      },
      "t_bytes32": {
        "encoding": "inplace",
        "label": "bytes32",
        "numberOfBytes": "32"
      },
      "t_mapping(t_address,t_struct(Position)795_storage)": {
        "encoding": "mapping",
        "key": "t_address",
        "label": "mapping(address => struct REFLEXVault.Position)",
        "numberOfBytes": "32",
        "value": "t_struct(Position)795_storage"
      },
      "t_mapping(t_address,t_uint256)": {
        "encoding": "mapping",
        "key": "t_address",
        "label": "mapping(address => uint256)",
        "numberOfBytes": "32",
        "value": "t_uint256"
      },
      "t_mapping(t_uint256,t_bool)": {
        "encoding": "mapping",
        "key": "t_uint256",
        "label": "mapping(uint256 => bool)",
        "numberOfBytes": "32",
        "value": "t_bool"
      },
      "t_struct(Position)795_storage": {
        "encoding": "inplace",
        "label": "struct REFLEXVault.Position",
        "members": [
          {
            "astId": 784,
            "contract": "contracts/REFLEXVault.sol:REFLEXVault",
            "label": "collateral",
            "offset": 0,
            "slot": "0",
            "type": "t_uint256"
          },
          {
            "astId": 786,
            "contract": "contracts/REFLEXVault.sol:REFLEXVault",
            "label": "debt",
            "offset": 0,
            "slot": "1",
            "type": "t_uint256"
          },
          {
            "astId": 788,
            "contract": "contracts/REFLEXVault.sol:REFLEXVault",
            "label": "openedAt",
            "offset": 0,
            "slot": "2",
            "type": "t_uint256"
          },
          {
            "astId": 790,
            "contract": "contracts/REFLEXVault.sol:REFLEXVault",
            "label": "active",
            "offset": 0,
            "slot": "3",
            "type": "t_bool"
          },
          {
            "astId": 792,
            "contract": "contracts/REFLEXVault.sol:REFLEXVault",
            "label": "subscriptionId",
            "offset": 0,
            "slot": "4",
            "type": "t_uint256"
          },
          {
            "astId": 794,
            "contract": "contracts/REFLEXVault.sol:REFLEXVault",
            "label": "protectionRatio",
            "offset": 0,
            "slot": "5",
            "type": "t_uint256"
          }
        ],
        "numberOfBytes": "192"
      },
      "t_uint256": {
        "encoding": "inplace",
        "label": "uint256",
        "numberOfBytes": "32"
      }
    }
  }
}